:020000040800F2
:10000000A8040020050100082B100008630F000859
:100010002910000871010008C71200080000000044
:100020000000000000000000000000002F10000889
:1000300073010008000000002D10000831100008B6
:100040001F0100081F0100081F0100081F01000810
:100050001F0100081F0100081F0100081F01000800
:100060001F0100081F0100081F0100081F010008F0
:100070001F0100081F0100081F0100081F010008E0
:100080001F0100081F0100081F0100081F010008D0
:100090001F0100081F0100081F0100081F010008C0
:1000A0001F0100081F0100081F0100081F010008B0
:1000B0001F010008851000081F0100081F0100082B
:1000C0001F0100081F0100081F0100081F01000890
:1000D0001F0100081F0100081F0100081F01000880
:1000E0001F0100081F0100081F010008DFF810D0E1
:1000F00000F02CF80048004709130008AFF3008017
:10010000A80400200648804706480047FEE7FEE7AF
:10011000FEE7FEE7FEE7FEE7FEE7FEE7FEE7FEE7B7
:1001200083100008ED000008D2B201E000F8012BB6
:10013000491EFBD270470022F6E710B513460A4667
:1001400004461946FFF7F0FF204610BD064C074D48
:1001500006E0E06840F0010394E807009847103497
:10016000AC42F6D3FFF7C6FF4C9100086C91000833
:10017000FEE770472DE9F84FDFF8B891002409F148
:10018000040A0AF1040B23460F270BF1040EC9E001
:100190000125A5402A40AA427DD1674ED1F804C06E
:1001A000ACEB0608B44532D014DCBCF1030F3AD0F6
:1001B00009DCBCF1000F2AD0BCF1010F1CD0BCF14E
:1001C000020F31D11DE0BCF1110F17D0BCF1120F9D
:1001D0002AD119E0B8F5881F19D006DCB8F5803FA0
:1001E00015D0B8F5801F1FD111E0B8F5001F0ED053
:1001F000B8F5041F18D10AE0CB6815E0CB681B1DC9
:1002000012E0CB6808330FE0CB680C330CE08B684E
:100210002BB1012B4FF0080303D0456104E0042308
:1002200002E0056100E00023FF2A01D8064601E054
:1002300000F104064FEA840501D9A5F12005D6F89E
:10024000008007FA05FC28EA0C0803FA05F548EADD
:100250000508C6F800804D68ED0062D5374DAE69DF
:1002600046F00106AE61AD6924F0030605F0010514
:100270000095334D06EB050CDCF80850A607360F49
:1002800007FA06F825EA0805DFF8B880404503D1EB
:100290004FF0000817E044E0DFF8AC80404502D1A1
:1002A0004FF001080FE0DFF8A480404502D14FF085
:1002B000020808E0DFF89880404502D14FF00308BB
:1002C00001E04FF0040808FA06F848EA0508CCF8FF
:1002D00008804D68D9F80060ED034D4601D51643FE
:1002E00000E096432E604D68DAF80060AD03554695
:1002F00001D5164300E096432E604D68DBF80060A0
:10030000ED025D4601D5164300E096432E604D6830
:10031000DEF80060AD02754601D5164300E0964355
:100320002E60641C0D682A46E5407FF431AFBDE8BD
:10033000F88F00000004014000001110001002407E
:100340000000014000080140000C01400010014085
:10035000001401400148806870470000040000203C
:1003600002488168027811448160704704000020CF
:10037000074810B5016841F010010160032000F04A
:1003800075F8002000F006F800F024F8002010BDF9
:100390000020024070B50D4D04464FF47A71287864
:1003A000B1FBF0F00A490968B1FBF0F000F0CCFABB
:1003B00048B9102C07D200222146501E00F036F812
:1003C00000206C6070BD012070BD000004000020A2
:1003D000100000200C4808B5816941F001018161DD
:1003E000816901F001010091C16941F08051C16151
:1003F000C06900F0805000900448416821F0E0613D
:1004000041F00071416008BD001002400000014051
:10041000002809DB00F01F02012191404009800003
:1004200000F1E020C0F8001170470000F0B40E4B5E
:100430001B680C46C3F30223C3F10705042D00D942
:100440000425191D072901D2002300E0DB1E012627
:1004500006FA05F1491E214099409E40761E16403D
:100460003143F0BC00F030BF0CED00E0064900F075
:10047000070208684FF6FF03184040EA0220034ACB
:1004800010430860704700000CED00E00000FA0522
:100490002DE9F0470F46050061D0434E306800F06B
:1004A0000700B84209D2306820F0070038433060B6
:1004B000306800F00700B84251D128683B4C8107F2
:1004C00012D5400703D5606840F4E060606028788A
:1004D000000703D5606840F4605060606068A968F8
:1004E00020F0F000084360602878C00728D06868D2
:1004F000012810D02168022810D0890700292EDA9F
:10050000616821F0030101436160FFF723FF80462A
:1005100041F288390DE021688903EFE78901EDE7B1
:10052000FFF718FFA0EB0801494502D90320BDE8F9
:10053000F0876068696800F00C00B0EB810FEFD1C4
:10054000306800F00700B8420BD9306820F007008F
:1005500038433060306800F00700B84201D0012015
:10056000E5E72878400705D56068E96820F4E06091
:10057000084360602878000706D56068296920F480
:10058000605040EAC100606000F018F86168084AF5
:10059000C1F30311515CC840064908600648006871
:1005A000FFF7F8FE0020C2E70020024000100240E2
:1005B0003A910008100000200800002012A185B028
:1005C0000FC98DE80F0014A0144A00680490516808
:1005D000134801F00C03042B10D0082B0ED1C1F3EB
:1005E0008343C9031DF803000AD5516804AAC1F367
:1005F0004041515C0A4A5043B0FBF1F005B07047EE
:1006000008494843FAE70000020304050607080901
:100610000A0B0C0D0E0F101001020000001002401A
:1006200000127A0000093D002DE9F84F040070D057
:100630002078C04DC00749D06868C0F38100012808
:1006400007D06868C0F38100022809D16868C00338
:1006500006D52868800339D560680028E7D035E0E2
:100660006068B0F5803F0BD010B1B0F5A02F11D06D
:10067000286820F480302860286820F4802002E078
:10068000286840F480302860606890B1FFF762FE0F
:1006900006460AE0286840F480202860F0E700BFA2
:1006A000FFF758FE801B642873D828688003F7D5AD
:1006B0000CE0FFF74FFE064605E000BFFFF74AFEDD
:1006C000801B6428F0D828688003F7D420789A4EDD
:1006D00080074FF001094FF0000839D5686810F025
:1006E0000C0F07D06868C0F38100022809D1686840
:1006F000C00306D42868800714D52069012808D1D2
:1007000010E02069B0B1C6F80090FFF723FE07465D
:1007100005E00AE1FFF71EFEC01B0228C4D82868C6
:100720008007F7D52868616920F0F80040EAC10029
:1007300028600DE0C6F80080FFF70CFE074604E0D5
:10074000FFF708FEC01B022823D828688007F7D4CB
:10075000207800072CD57948A169D9B1C0F800905C
:10076000FFF7F8FD074604E0FFF7F4FDC01B022881
:100770000FD8686A8007F7D571484FF4FA510068BE
:10078000B0FBF1F0009000BF0098411E0091FAD23A
:100790000EE080E0C0F80080FFF7DCFD074604E0D3
:1007A000FFF7D8FDC01B022875D8686A8007F7D408
:1007B0002078400760D5E8690027C00008D4E869C0
:1007C00040F08050E861E869012700F08050009017
:1007D0005C480168C90513D40168834641F48071FF
:1007E0000160FFF7B7FD824606E000BFFFF7B2FDEC
:1007F000A0EB0A0064284ED8DBF80000C005F5D550
:10080000E06801280AD008B1052813D0286A20F032
:1008100001002862286A20F0040002E0286A40F003
:1008200001002862E06841F2883B98B1FFF792FD31
:1008300082460BE0286A40F004002862EEE700BF21
:10084000FFF788FDA0EB0A0159455AD8286A8007AE
:10085000F6D50CE0FFF77EFD824605E0FFF77AFD56
:10086000A0EB0A0159454CD8286A8007F6D41FB17D
:10087000E86920F08050E861E06988B36968C1F3F5
:100880008101022944D00228C6F8608004D0FFF715
:1008900061FD044638E034E0FFF75CFD074604E004
:1008A000FFF758FDC01B02282BD828688001F7D419
:1008B000206AB0F5803F05D16868A16820F4003057
:1008C00008436860D4E908010843696821F4741199
:1008D00008436860C6F86090FFF73CFD044606E0F8
:1008E00025E000BFFFF736FD001B022809D8286865
:1008F0008001F7D51BE000BFFFF72CFD001B02288D
:1009000002D90320BDE8F88F28688001F4D40EE0F6
:100910000128F7D06868226A00F48031914204D13E
:10092000616A00F47010884201D00120EAE70020DB
:10093000E8E700000010024000004242800442420A
:10094000100000200070004010B5401EB0F1807F04
:1009500001D3012010BD4FF0E02460610F2160172A
:1009600000F0B2FC0020A06107202061002010BD33
:100970007047704770B590F83C20012A26D00124BA
:1009800080F83C40022280F83D2003685A689D6848
:1009900022F070060A6832435A600D4B02689A4290
:1009A00008D0B2F1804F05D00A4B9A4202D00A4BD0
:1009B0009A4204D1496825F080031943916080F878
:1009C0003D40002180F83C10084670BD022070BDFB
:1009D000002C0140000400400008004010B5040055
:1009E00003D094F83D0010B107E0012010BD0020B5
:1009F00084F83C00204600F01FF8022084F83D00F7
:100A0000211D206800F044FB012084F8460084F892
:100A10003E0084F83F0084F8400084F8410084F8E8
:100A2000420084F8430084F8440084F8450084F8C8
:100A30003D00002010BD000008B501681048B1F16C
:100A4000804F14D00F4A914219D1C16941F002017F
:100A5000C161C069002200F00200009011461D2013
:100A6000FFF7E4FCBDE808401D20FFF7D1BCC169D9
:100A700041F00101C161C06900F00100009008BDB2
:100A8000001002400004004090F83D10012901D000
:100A900001207047022180F83D100168CA6842F0C9
:100AA0000102CA6000680B49884208D0B0F1804F4B
:100AB00005D00949884202D00849884204D181689A
:100AC00001F00701062903D0016841F0010101602E
:100AD00000207047002C0140000400400008004046
:100AE00070B5044690F83C00012817D0012584F821
:100AF0003C50022084F83D002068826822F0770292
:100B000022F47F4282600868502830D00DDC202813
:100B10004DD005DC98B310283BD148E0022070BDD1
:100B2000302844D0402834D139E0602828D07028BB
:100B300006D0B0F5805F2CD0B0F5005F29D10AE077
:100B4000CB68D1E90121206800F0E5FA20688168CE
:100B500041F0770109E0CB68D1E90121206800F07C
:100B6000DAFA2068816841F48041816011E0CA6846
:100B70004968206800F084FB5021206807E016E0F7
:100B8000CA684968206800F08CFB6021206800F08A
:100B9000CCFA84F83D50002084F83C0070BDCA684F
:100BA0004968206800F06CFB40212068EFE722686C
:100BB00001461046EBE7704770B5044600680169CE
:100BC0004FF00005C943890715D4C168C943890797
:100BD00011D4E91E01610120207720688069800717
:100BE000204602D0FFF7E7FF04E000F0BDF8204602
:100BF00000F04CF9257720680169C943490717D4EB
:100C0000C168C943490713D46FF004010161022090
:100C100020772068806910F4407F204602D0FFF7DB
:100C2000CAFF04E000F0A0F8204600F02FF9257775
:100C300020680169C943090716D4C168C943090777
:100C400012D46FF008010161042020772068C06988
:100C50008007204602D0FFF7AEFF04E000F084F8E2
:100C6000204600F013F9257720680169C943C906B9
:100C700017D4C168C943C90613D46FF010010161CC
:100C8000082020772068C06910F4407F204602D0F9
:100C9000FFF791FF04E000F067F8204600F0F6F857
:100CA000257720680169C943C90708D1C168C943CC
:100CB000C90704D1891E0161204600F037F9206878
:100CC0000169C943090609D4C168C943090605D4A5
:100CD0006FF0800101612046FFF74AFE206801693C
:100CE000C943490609D4C168C943490605D46FF010
:100CF00040010161204600F033F920680169C943D1
:100D000089060BD4C168C943890607D46FF0200156
:100D100001612046BDE87040FFF72BBE70BD0000AA
:100D200000B585B000210091019102910391006806
:100D3000B0F1804F11D10A48816941F0040181610D
:100D40008069694600F004000490012000900220B0
:100D5000019003900348FFF70DFA05B000BD0000B5
:100D60000010024000080140704770B5044690F83A
:100D70003C000D4601280AD0012084F83C0042B115
:100D8000042A18D0082A2AD00C2A4DD139E0022092
:100D900070BD206800F0D2F92068816941F0080137
:100DA00081612068816921F0040181612068816985
:100DB0002A69114311E0206800F0E8F92068816990
:100DC00041F4006181612068816921F48061816161
:100DD000206881692A6941EA0221816124E0206852
:100DE00000F000FA2068C16941F00801C161206883
:100DF000C16921F00401C1612068C1692A691143F8
:100E000011E0206800F01AFA2068C16941F400611D
:100E1000C1612068C16921F48061C1612068C16934
:100E20002A6941EA0221C161002084F83C0070BDBA
:100E300010B5040003D094F83D0010B107E0012084
:100E400010BD002084F83C00204600F01EF802206F
:100E500084F83D00211D206800F01AF9012084F873
:100E6000460084F83E0084F83F0084F8400084F88F
:100E7000410084F8420084F8430084F8440084F878
:100E8000450084F83D00002010BD70477047000009
:100E900010B50446022249B104290ED0082913D006
:100EA00094F84100012816D0012010BD94F83E00AE
:100EB0000128F9D184F83E200FE094F83F00012882
:100EC000F2D184F83F2008E094F840000128EBD1EB
:100ED00084F8402001E084F841200122206800F0DD
:100EE0000DF90F492068884203D1426C42F4004258
:100EF00042642068884208D0B0F1804F05D009498B
:100F0000884202D00849884204D1816801F0070173
:100F1000062903D0016841F001010160002010BDE5
:100F2000002C01400004004000080040006809490E
:100F300088420ED10949084A4FF080430868125C84
:100F40005A63401C47F6E2520860904201D92C20B7
:100F5000086070470004004058130008000000209B
:100F60007047FEE710B58EB00024079408940994EA
:100F70000A940B941C2168460C94FFF7DCF8154882
:100F80004FF08041C0E90014FF21C0E90241046133
:100F90008461FFF723FD4FF48050079007A90D48A7
:100FA000FFF79EFD0B48FFF743FF0B940BA9094881
:100FB0000C94FFF7DFFC6020CDE9000402940022CE
:100FC000694604480494FFF7D0FE0248FFF7A8FEE4
:100FD0000EB010BD1400002010B586B000241148DA
:100FE000009401940294039404940D4905940160C3
:100FF0002321C0E901147C21C0E903148461FFF7B7
:10100000EDFC4FF48050009069460648FFF768FDFC
:10101000049404A903480594FFF7ACFC06B010BD86
:10102000000400405C000020FEE7704770477047F6
:10103000FFF796B930B58FB028216846FFF77BF8E7
:1010400014210AA8FFF777F801210804CDE9001060
:101050000024029402250491CDE907504FF4E010DA
:1010600009906846FFF7E0FA0F20CDE90A0568020B
:10107000CDE90C4002210AA80E94FFF709FA0FB03F
:1010800030BD70470148FFF797BD00005C000020AD
:10109000F0B50268164B174C174D4FF08047984239
:1010A00005D0B84203D0A04201D0A84203D122F01B
:1010B00070064A683243984205D0B84203D0A04235
:1010C00001D0A84203D122F44074CA6822434C697B
:1010D00022F08002224302608A68C2620A68826249
:1010E000984201D10969016301214161F0BD00000D
:1010F000002C0140000400400008004010B501F041
:101100001F030121046A99408C430462016A9A40DA
:101110001143016210BD10B5846842EA032224F431
:101120007F440A432243826010BD826822F070022D
:101130000A4342F0070181607047000030B5026A3F
:1011400022F001020262026A4368846924F0730596
:101150000C682C4322F002058A682A430A4DA842F3
:101160000BD122F00805CA6823F440732A434D6965
:1011700022F004021D438B692B434360846149685C
:101180004163026230BD0000002C014030B5026AAC
:1011900022F010020262026A436884690D6824F436
:1011A000E64444EA05248D6822F0200242EA051252
:1011B0000B4DA8420ED1CD6822F0800242EA051202
:1011C0004D6923F4406343EA85038D6922F04002B0
:1011D00043EA85034360846149688163026230BDEC
:1011E000002C014030B5026A22F480720262036A68
:1011F0004268C46923F4007324F073050C682C431F
:101200008D6843EA05230C4DA8420ED1CD6823F426
:10121000006343EA05234D6922F4405242EA051275
:101220008D6923F4806342EA05124260C461496813
:10123000C163036230BD0000002C014030B5026A7A
:1012400022F480520262046A4268C3690D6823F482
:10125000E64343EA05238D6824F4005444EA053448
:10126000064DA84204D14D6922F4804242EA85121B
:101270004260C36149680164046230BD002C0140D2
:1012800010B5036A046A24F001040462846924F03E
:10129000F00444EA021423F00A020A438461026261
:1012A00010BD10B5036A23F0100303628369046A5A
:1012B00023F4704343EA023224F0A00343EA01110D
:1012C0008261016210BDFEE70907090E002804DBF8
:1012D00000F1E02080F80014704700F00F0000F1EA
:1012E000E02080F8141D704702E008C8121F08C1F2
:1012F000002AFAD170477047002001E001C1121F97
:10130000002AFBD17047000008B5FFF731F8FFF75E
:1013100091FE0F48816941F020018161816901F0EE
:1013200020010091816941F004018161806900F030
:1013300004000090FFF716FEFFF74EFE0548FFF78A
:10134000A3FB044800214838FFF7A2FDFEE7000098
:10135000001002405C00002052494646DA7D000041
:1013600057415645666D74201000000001000100D1
:10137000803E0000803E0000010008004C495354AC
:10138000AE000000494E464F49415254160000003D
:101390007777772E6E6861636368756F6E677675B1
:1013A000692E636F6D0049434D5416000000777736
:1013B000772E6E6861636368756F6E677675692EE8
:1013C000636F6D00494E414D310000005469E1BA30
:1013D000BF6E672063C3B269206E67757920686944
:1013E000E1BB836D202D207777772E6E6861636374
:1013F00068756F6E677675692E636F6D0000495072
:101400005244160000007777772E6E686163636838
:10141000756F6E677675692E636F6D00495346541C
:101420000D0000004C61766635392E322E31303198
:10143000000064617461007D000080808080808095
:10144000808080808080808080808080808080809C
:10145000808080808080808080808080808080808C
:10146000808080808080808080808080808080807C
:10147000808080808080808080808080808080806C
:10148000808080808080808080808080808080805C
:10149000808080808080808080808080808080804C
:1014A000808080808080808080808080808080803C
:1014B000808080808080808080808080808080802C
:1014C000808080808080808080808080808080801C
:1014D000808080808080808080808080808080800C
:1014E00080808080808080808080808080808080FC
:1014F00080808080808080808080808080808080EC
:1015000080808080808080808080808080808080DB
:1015100080808080808080808080808080808080CB
:1015200080808080808080808080808080808080BB
:1015300080808080808080808080808080808080AB
:10154000808080808080808080808080808080809B
:10155000808080808080808080808080808080808B
:10156000808080808080808080808080808080807B
:10157000808080808080808080808080808080806B
:10158000808080808080808080808080808080805B
:10159000808080808080808080808080808080804B
:1015A000808080808080808080808080808080803B
:1015B000808080808080808080808080808080802B
:1015C000808080808080808080808080808080801B
:1015D000808080808080808080808080808080800B
:1015E00080808080808080808080808080808080FB
:1015F00080808080808080808080808080808080EB
:1016000080808080808080808080808080808080DA
:1016100080818181818181818181818180808080BF
:101620008080808180808080808080807F80807FBB
:101630007F7F7F7F7F7F80808080808181818181AB
:10164000818181828282828283828282828181817F
:101650008181818282828282828282818181818172
:10166000818182828282838383838384848483834F
:10167000848484848585848484848383838383832E
:101680008383838383848383838383848484848424
:1016900084858585868585858484848485858586FD
:1016A00086868686868686868686868686858686DB
:1016B00086868685858585868686868686868686CE
:1016C00086868685858585848484848485858585CC
:1016D00084848485858484838383838383838383D1
:1016E00083828283838383848483848484848485C3
:1016F00085858584848484848484848484848484A7
:10170000848484848484848484848383838383849E
:101710008484838383838383838484848484848490
:101720008483838383828383838382828181818193
:1017300081808080807F7F7F7E7E7E7D7D7D7D7DC0
:101740007C7B7B7B7C7D7D7D7D7D7D7C7C7C7C7CD6
:101750007D7D7D7E7F7F7E7F7F7F7F80808080819B
:10176000807F7F7E7D7D7D7E7E7F81818181818086
:101770007F808180808080807F7E7D7C7D7D7D7D7F
:101780007D7D7C7C7E7E7E7F808080807F7E7D7C78
:101790007B7A7A7B7A79797A7978787978797A7AB2
:1017A0007A7C7C7B7C7D7D7B7C7D7C7B7B7A797984
:1017B0007A7A7A7A7B7B7C7E7F7F7E7F7F7E7D7D5F
:1017C0007D7C7C7C7C7D7F8080807F7E7B7A7A794B
:1017D00078797B7B7C7D7D7C7D7D7C7C7C7B7A7954
:1017E00078787878797B7C7D7D7D7C7B7978797A57
:1017F0007B7B7B7B7D7E7D7C7A767474757575755D
:10180000767879797A7B7B7B7B7B7B7B7B7A78773D
:101810007677797B79777778797A7C7B7A797A7B36
:101820007D7E7D7B7B7C7C7D7D7C7C7C7B7B7B7AF9
:101830007A7A7A7A7A7B7C7E7F7F7D7E7E7D7B7BE7
:1018400079767679797A7B7C7D818281807E7C7DD8
:101850007E80807F7F7E7C7B7B7A7B7D7D7C7B79BD
:101860007574777A7C7E7F7F807F7D7D7C7B7D7EBB
:101870007D7D7E7E7E7F7D7A7A7B7C7D7F80808091
:1018800082817F7F7F808385838080818386868835
:101890008A8C8C8D8D8B8C8D8C8A8987888A8A899D
:1018A00088858180807F7D7D7D7A78787570707580
:1018B00078797B7A78797C7D7F81817F7E7E7D7C63
:1018C0007F85898B8C8A8582848484858788898CAE
:1018D0008F8D8C8D909190908F8B888887888A8C43
:1018E0008C8C8B89868583818081818183868888A1
:1018F00087878888878683808184868B8E8F8E8E6B
:101900008E8D8D8E8F908F8E8E8E8D8D8D8E8E8CFA
:10191000898785838282848688898887868586866A
:1019200085827F7F8184888B8D8C8B8B8A8A8A8A43
:101930008988888A8C8F9192918F8D8B8C8C8B8AE1
:10194000898786868584848485868784807D7A7A63
:101950007B7F8182807E7D7F838788888683828467
:10196000888B8E909190909192918E8D8C898684A7
:10197000817E7D7C7B7C7E7D7B78777676787A7CB9
:101980007C7B7B7D808284868788898B8B8B8B8A0E
:101990008A89898A8D8F8D8C8C8A888785818080C1
:1019A0008080817F7C787573737475787A7B7B7C9B
:1019B0007D7E818484848484858583807D7D7C7C18
:1019C0007D7C7B7C7D7D7D7D7C7A79787879797969
:1019D0007A7B7B7C7D7D7C7E7E7C7B7C7D7E7F7E3E
:1019E0007D7D7F8183838282807D7C7C7C7C7B7813
:1019F0007677777674716E6C6B6C6F7174767676C1
:101A0000797B7B7A78777676787978777979787B4D
:101A10007E7E7F7E7C7A7C7D7D7E7F7F80808183E1
:101A200083817D7B79777675716B69676769696892
:101A30006A6D7072767879797776787A7875777A50
:101A400079787878797C7B78767677797875727220
:101A50007273767776777979797A79787879797B0C
:101A60007C7D7F8081817F7B7B7C7B7B7A797B7DAA
:101A70007E7C7C7C7B78767A7A76757673727578E4
:101A80007B7C7A7A7D80807F7D7A797773727476B9
:101A9000777A7C7B7A7B7977767271767A7A7C80BA
:101AA000807F7F808181818183848381818283851E
:101AB0008482868C8E8E8A827D7F817F7E7B787900
:101AC0007B7C7E82817E7E80808285827D7D7D7A28
:101AD0007D818080817C787B80858780787B808019
:101AE00080807D7C80878D8F8E8A8685858688889C
:101AF000858382808083827F7E7D787B858E8F8BBD
:101B00008483898D8C8B88827E80858B909294963D
:101B10009493928D84807F7B7C8485807C7B75729E
:101B2000778186837B777F88898787868790949360
:101B30009799938F8A83848987827F7A75797B745A
:101B40006D6C6B6A717E8889858388949A9B9C9B57
:101B500099A1AAA9A9ACA59A96918C9091898587FB
:101B60008382847C6E66635C575F6B716F6A6B7691
:101B70008388898884889195959B9F9C9A98989F43
:101B8000A3998C89868182817972726D6260697095
:101B90006E67636775848D90909199A2A6A7A9A797
:101BA0009E9695999E9C938B847D7B7B7366605BF0
:101BB000514D555F646563626A798080807F83924E
:101BC0009FA5ABB3B1AAA6A7ACADA290827978804D
:101BD0008179726C60575A5D5D59524B4F5E6B71E3
:101BE0007679787F8C949BA5A69D9698A2ACA99AAD
:101BF0008E8787929D9A8E83756B6B6E6D685E5330
:101C0000535F6B6F6E6B63606773818F928A7F7CAB
:101C100085959C94887D798395988B7D7063636DA1
:101C200075736D656168757F8381777175818F9A32
:101C30009C95897D8091988C7B6B5D6177827B70B0
:101C4000665C5C697578756E6B7688959A998F83FA
:101C5000818997A3A59F93817D8E97897A6D5A5725
:101C60006D7B72655C504C57646A665C5965757F24
:101C70008B938B81838B95A1A6A39C8D8697A69A27
:101C80008B826F62707A716964554D57656D6F6AAA
:101C900068727E85919E9B92959698A7B5B5AD9EEC
:101CA0008E98A9A08E87786669706D6E6C5E5355AC
:101CB0005A5C5D5B59606B6F788A938F8D8C8A92CA
:101CC000A3ADAC9E929BAAA69B958A7D787A7F87CE
:101CD000867C6F68696C6B6B6E71757B83909D9E63
:101CE00095918E8C95A7AA9C949B9F9A95908678A7
:101CF0006C6A737E827E72656264656D787A7B84BD
:101D00008C929B9E978E898996A7A79B94928C878D
:101D1000847F797268626B7B817B71686467718193
:101D20008D8F90969A9EA9AB9B8D90979DA9ADA300
:101D3000958E8984827C70645A596878766F6B605E
:101D4000586371778086828595A1A39B8E8991992E
:101D50009EA8A9988A8986848A846C5E5E6370795D
:101D600071686154546770707F898189A5B0A599A5
:101D7000908B9098A0A9A5938A8C8682857A5D50D5
:101D80005A656C716F614F4A545F636E7E7F7A87CC
:101D90009EA09288827D81909CA09E968B87888849
:101DA00084776459616D72736C5C50555E65717AAD
:101DB000797A7F858E928B807C828E928E929489A6
:101DC0008084827978796E646B77756B6661585917
:101DD00062697075787D8382838A867D8291968E12
:101DE00087888B8A8883766E757C73696C6D696E63
:101DF000756F6B6D696872767883867D808D909340
:101E00009790847E797D88877A736F70797D746905
:101E100063616C7A7D7A787574797D818888807E3B
:101E200089959B9A8D7A707072788280726D7576C2
:101E30006E6A665B5B6A79858B827675767479806B
:101E400081858E97A0A6A19180726969737F838234
:101E500080818178675B595D68767F8488837B7831
:101E6000767478848D949FAAAB9C89817D726A7503
:101E700084868C9896877967565869798586848E8A
:101E8000968E867F6E68788A95A5AEA591807777C5
:101E90007369687178829296846B574D5061798727
:101EA00084828B9595938B776A7891A2AEB5A88E34
:101EB000848780747374727C8C93938D7B685D616E
:101EC00074868A8B9394929A9C8D7D797B899FAA44
:101ED000A69D91858382776C68687382837F837FF8
:101EE0006F6A6D6E78888C8D93999D9C958E8A878C
:101EF00092A19E979E9F9087878070686C7274797C
:101F00007B76767F868378748495989EA79D99A723
:101F1000A5989EA1918A919697948C857667696E13
:101F2000625B63626072858882776F77899395952B
:101F3000949AA7AEAFA9947F7F888F939088888763
:101F40007A6F6D675A525A70828D90867D85909314
:101F500090898DA0AAADBDC1A58C8884858F8A7813
:101F6000798E9584706354484E60707B838380873C
:101F700093978E7E78859DB1B8B8B29D8987897D0B
:101F80007374757787948B776354515A6A77777730
:101F90008997939AA5927B83929CADB7B0A39287C1
:101FA000877D68666D6A6D7C7D6F655E55505F7379
:101FB00076718195979A9E90838E9A979AAAB3A7E5
:101FC000938C877468706F67737E6D5C6263565420
:101FD00061696D7A899199A09B8D8A98A7A7A0A124
:101FE000A7A69B8E7F6D63666E75767062565251A2
:101FF00051545A5E687A8A99A296858991929BA9D2
:10200000A7A2A5A0938B7F695B5E666B7070655617
:102010004A474A4F585F6571889A9C9694928D8E74
:1020200098A3ACACA0969287756A66615C5B5D61B3
:102030006054453E404D5E625E69808C8C90939208
:10204000929292A0AEA7968C898984776F6C605B20
:102050006766565452424B6D776C6A6D7487999BD4
:102060009997959DA7AAACA4866F78868682796495
:102070005860685F504641435371847F746F70812C
:1020800096938790A1A3A6ABA598876F6271828271
:10209000786A5E5F625A4D474549597185877F7EF0
:1020A000878C8E9191909FB2B3ABA69B887A757204
:1020B0006E6E727672665C59564F4A4D586E8083CA
:1020C000818A94928A858A949CA2A9A89F9A9584D1
:1020D000726B66626F817B6763645B5B64615A6588
:1020E0007D92A0A099918685929B989A9C999699A9
:1020F000998A715C53586F85837165646B6F6E6EDE
:102100006A6A7F9FB0B3AE92767E959992949694C8
:10211000989C8B726862555768788181756F73736C
:10212000706F708298A4B3C0AD918A8B888C8E8AB0
:102130008EA0A89272635C555C6C71707883867F08
:102140007B7C756E7F9399A9BBAE979795857C7EB6
:102150007D7C8992877C7E7056525E6065727A7D46
:1021600082878D8C878C918D99B0B0A7ABA7958D08
:102170008B8279797A77706D7679695A5C636D783C
:10218000787684969D9EA09C989A9D9DA2ACA998D5
:1021900090938A7B756E6461606675756560656A2B
:1021A0007479747F93979DACAFA9A69E9BA7AB9FB4
:1021B0009597958A807D756966645F656C625A68DB
:1021C0007673718194968B8D9CA6A8A59E9EACB3C8
:1021D000AA9B8F7F6F6E7B7A665F6766686E5E4BC9
:1021E0005A6B68799DA59A9897929BAAA89DA1AFD2
:1021F000B3B2B0A07E6466757569636160696D5E37
:102200005B655D5674989A939AA09C9EA6A59D9E28
:10221000A6A8A8A7967C757F8275655E5A575F67EA
:102220006262686871898D7C808F8C94ADB3ABAE2F
:10223000AC9A96A19880787F84898E856C564F4B96
:102240004A5669707281908F86847E747C98ACB691
:10225000C0B69D9899817177777687928979634F17
:1022600048494F5C697480878E948B766C768FA812
:10227000B6B9AE9B959992887D6A6984948A7B658C
:102280004B435366706F67616A7F8F897770768979
:10229000A3B9B9A185808C959A9B8B7A7F8982742A
:1022A000624A41546E7D79675A5F6967656B6F77E3
:1022B00093ADAA9A8E7C74808B8C92989796948515
:1022C0006C4F40506D7777766D666A685B525057F9
:1022D0007197AEAC9B887D7B7E8386888B94A0A50E
:1022E00093766157566374766C696D73746B5C5545
:1022F00059677A89949A968C87898A887F7C889096
:102300008D91927F6F6F6451536264626B747472CB
:10231000726A5E5F6D7B8BA1ABA49C99928B888166
:10232000777D8F95918D7C61535451505C686C73AF
:102330007B79716E6E6D738699A4ADAA9D989A8D06
:102340007D7E85878D907E665D5D57575C5B565DB3
:102350006E7269696C6C7B979D949BA09698A59E04
:102360008F9198959699886854555E676D6B625FFA
:1023700068706E6663677A95A3A3A5A49A9AA19CD8
:10238000969C9F9895998F76605D5F5A585C6164C2
:10239000686B6E6F727B808799A29C9DACB4B2A96A
:1023A0009D9DA2978A867D6E6B6F6F6C604E474EC7
:1023B000535B6B7679869B9E959395949BABB4B754
:1023C000BCBBAD9A8C806F656B7677706B635A512E
:1023D00046455A6D71809CA49B98938B93A4ABB196
:1023E000BFC2B1A19889756A6C73767272756A52B0
:1023F000495460646F8596999BA3A39B999DA6BB46
:10240000C9BCAAA599857D7B736F706A717C6A4986
:1024100048606D737E898C8D93A0ABABA094A2C7EE
:10242000D1B69D8F7C758390856C5E6672725E44BA
:1024300040576F8292958E8A878F9E9D929FBCCBCC
:10244000C9BCA5876E6E7E83797272777D765C3D9E
:1024500031405F809898847F929C8F7F7C8BA6BC54
:10246000C8C8B28E736F797C6D646F787474726053
:102470004C4851627B89807F9AA79488949891995F
:10248000A6A59E99918A847C6E6463646363676F7A
:10249000726F717671686A788A9AA19D9BA0A298E2
:1024A000847779828C969384786C59545D5E5B68EE
:1024B0007C868C8877686465738FA1A29F9E988CB8
:1024C0007D75706D768B9794886F534C54565E7300
:1024D0008386878B81675965737B8FA7A89D9787B4
:1024E0006E686E6B7294A891787569504E5B5E6BE6
:1024F00086918D8F866958626F788CA1A0948E87A3
:10250000786E67606B84908D887D7063585B6B78A4
:10251000828C8C878881797D796E798C8C8B918582
:10252000706E7473737A796C6B7E89817E7F75723D
:102530007D817F8A93867D8C94857D7D6F66798988
:1025400085888D7D6F787A6763747E859AA596827B
:102550007770778788818B9C9D93846F5E5E6C7C9F
:10256000888B8682868370646B737991AAA6938820
:102570007F7C898E84838B8F928E7C6D6968748555
:102580007F727A7F74737974738496A2A59883821C
:10259000949D94919A9B94918C7863616F7F8C86C3
:1025A0006D65777F746E7076879BA6A4917E8BA8ED
:1025B000ADA2998F8F9B9B8A7972747E898776648E
:1025C00061636977807B80939B958D7B6F84A7B3D4
:1025D000B3B5AC99908C80746F7892A4988074692C
:1025E00059565F6A778B999C998D766B7F9DA4A0D5
:1025F000AAB9B3A092877976889C9D8E7E75706EFD
:102600006B615C6D899591877669738A9CA1A2A89C
:10261000AEA89A91877C869DA59A8B7E797A746202
:1026200057606E7B8E957B5F677E8B918D8590A5C5
:10263000A497959491979D958A7F717690927064F6
:10264000767668685E485178929B9D8D74707E8125
:10265000787D98B4C1C2B38D635768797E858A8BC3
:102660008E8866371F294B7691948F8C83776B5BAE
:102670005879A7C2CBC6A7857D7B6A65757B7F9697
:10268000996C3F36383F5261657185897C6F696B03
:102690007D9BADAAA2A0A5AB9E80747C7D7C807240
:1026A0005349535B5D53413E576E6F676C7A889711
:1026B000A3A091858BA6BDB69E8F8B8476614A467A
:1026C00057615C5A543F313C4444516A87A9B399DD
:1026D00083848690ADB8A9A6AFA58D714C2C3151DD
:1026E000635D554C3A2E3132374F6E8AA2A79C97C4
:1026F000938F9EB3AFADBCB6998268483D4953579E
:1027000057472F262A2E313E618793929EA4938BA2
:102710009EB4C3D0D0C1AB8964555A584C4C565561
:1027200045342211132D537F9B9A97A4A69A9BA7F9
:10273000B5CEE4E2C8A581695F5C5448454F574C6B
:1027400031160D1C427189878DA3B1B8BAB0ACC1E6
:10275000DCE8E0BB8C797870624F3D3C484A3B2610
:10276000181F436D7B78859CA9BCCEC4B8C8DEE930
:10277000E7C58D79878775634D35323B382C211D30
:10278000366B8C8784909CB0C9D0CDDAEFF3E7CD5F
:10279000A7847A84846F5B5245372F2615123060E8
:1027A0007E8E9EA29DABBEC1C8E0F2F9FAE9C29D41
:1027B000877A6F635A58564E413423151F426780FB
:1027C00095A7B7C3C6CAD6D9D4E1F3E9D5C9B08FA6
:1027D0007B68524F523E313F45393F505664809797
:1027E000ACBFC7D3E5E8E1E0DDD2C4B5A69B8B78EA
:1027F0006B5E48363236383A48586275909CA4B2BF
:10280000BDCBE2E8E0E6E9D6C5B9A38A7C756E6087
:102810004B3E3E3F3B34394E64768EA4ACB2C0CDC5
:10282000D9E1DBD0D6E1D3B5A48F6B606D604540B4
:102830003D35414A3C3D576B80A4BBB9BFD0D4D095
:10284000D1CDC9D2D0B8A799795F5A5247454040F7
:102850004D4D3E455D6E7E97ADBDC7C8C9CFCBBA65
:10286000BBCDC8AC9A927C625046484A454A5956FC
:10287000474A5D6E8198ADC1D2D1C7C4BDAEAFBC71
:10288000BAAA9E927E61443835303B555E57565702
:102890005C6B77839DB8C3D1DFD2B4A6ABADA396F2
:1028A0008E867C715D44332B2F445553505F6E747C
:1028B0008091989AA9BEC2BBB8B4A9A39F8C797223
:1028C000695C58523F394B5A58514F586671829A39
:1028D000A19FABB7ADA09B96969990817B746459EC
:1028E000503F38425361645C5E6D767B8A928E986D
:1028F000AFB5A99F9589878B8578695954564E4500
:1029000047484C5B605E6C79788498999BADB0A425
:10291000A2A09795907F7570615756493B47544FD9
:1029200052574D57787F7B8E9B97A5B4A08B949977
:1029300091908E80766F5B4A443A384D5C5A595973
:102940005A6A7A77778898A5B7B49A8C9396908AC2
:102950007F706A6A61554A3F415863544A536475AF
:10296000817F8296A4A4A59B878496A29E8D79756B
:10297000796A50413F496376715F51516375797946
:10298000849BB3B69F8A8584828E988C838B836266
:10299000473F43586E6C5F616A75807B6D748CA392
:1029A000B1AE9A8D8D9299937B6F7B837B68544FE8
:1029B0005F717569575871878A86878D98A1A19A2A
:1029C00091878799A49279747771655C5D646A7068
:1029D000746D616373889590888F928C98A59589A2
:1029E000929492927E65666B66768C846D6360626B
:1029F0006F767B90A4A1988E7B75848D93A2A4950D
:102A00008C7E6053606F7B8B928C7C6453576A7EA4
:102A10009AB6BBA88D79757A7A829FB2B0A88D5884
:102A200039445B718B979793856C5B586483ADC910
:102A3000C6AA918C86746E8196A4ADA07A58515B1B
:102A40006A7A8180879089766E7789A3BBB79E92D8
:102A500096928C8E8B8B999F8766565965717C8078
:102A600079767D7D75778292ACBDAF968F9192938A
:102A7000939396958D7D675452657A7F7877766CBF
:102A800067707A8493A6B7B59C898D94908F929540
:102A90009A957E6A615A5C6D79756A666B768186F5
:102AA000868E9BA4A3989096A0A4A9A38B7B786CF8
:102AB00060666D717E7F6C5E595665819099A9AF95
:102AC000A69A8F858793A8BCB4958070574D5B6696
:102AD0006E7E7A65615E4D53768C9AB6C5B39C8CDA
:102AE000828CA4B5BCB59C816C594D4C515F7277FA
:102AF0006F5C41374E6F89A1B3B5A99C9593929CA9
:102B0000B2C3BCA1836C55464D5F65666A654E369F
:102B10002C3E66899EB0B7A593929392A5C2CEC86B
:102B2000B492705442465E6A6B6F6548332F3855D5
:102B30007B97AFBDB19A95989BAABDC2C3C0A87F31
:102B40005D4C4F5D676A6858413A4149566E8BA5A6
:102B5000B1AA9F9A9BA5B9C7C7BFB3A1846A5C5DA0
:102B600061606263543C39454857788B93A4A699B9
:102B7000A3B6B5B6C2BDB2B3A58678766D68675800
:102B80004742414553606B7A8483848C99ABBCC6C1
:102B9000CBC6B5A79D8E8284898576635447393725
:102BA00044566B7F837A7678829AAEB6C0CABFAA43
:102BB00098847C8B979083745E4C423B39476A8E35
:102BC00097866F656F889DADBECACCC5AB826D74AC
:102BD000879A9B85726A5C4A403C4C7A9E9D8C7CAD
:102BE0006F7B9BACADB2B8BABAA6826F758290917A
:102BF00078594D4D535A5B6380948A7B7A7E8AA6BE
:102C0000BEBFB7AFA29288807A808B8E8264413833
:102C100049596980878081827C7D8595B8D6CCAF03
:102C2000997F6C75858A8D8B81714D2524426083D7
:102C3000A09F8F85796F7383A1C7DEDCBD89645E39
:102C4000646E7A7E868B70422D2B37608F9C928BC0
:102C50008C8F8B8288A0BDD1CCA16F5960727C70A3
:102C60006268685341363150849C99938886949A5F
:102C700099A3AAB6CDBE7B5363716E6B62564F4B60
:102C80004B493A406F989C90827E96B0AFAAAFB104
:102C9000B4B493665C6D746D604F403A3F484744EE
:102CA000608E9E8E807E89A9C6C6BABBB9A3866F88
:102CB0005E5D6E7C74593B28232C3B4E6781949952
:102CC00091837D8BA7C0C8CAC5AD89736E6A6460E5
:102CD00062665A392327344768818588908F8E939E
:102CE00099A6C3D4C8AD8D6F666E6653525E5C4DB7
:102CF0003C2E2E3F5A75878A909EA4A2A3A3A9BA00
:102D0000BBA493887A767057484C463C41464B5D4D
:102D10006C70767B8399A6A7B1B8B7BDB18A7C8762
:102D2000807879634C4C43323B49526D817D7A7E89
:102D30008499AAADBED0C5B3A27C63728783736544
:102D40005C4D321F20325A8A9F998F827F8E9CA3BE
:102D5000B9D6E4DCB8825C57656D69666C654B2F4B
:102D60001D21416C8EA1A19CA4A9A09CABC2D6D66A
:102D7000BF9B745F6869514E605D493E35354B6756
:102D80007E929BA5B8BAA9A3ADC1D3C9AA958A7EE4
:102D90007B6D4A374756554C43496078888B80890C
:102DA000B5D5D1C5C4C9CABA9F88787687896A4A19
:102DB0003C36393F42516D859CA5978FA2B2BACE61
:102DC000E0DCCDBEA98E74697074675A59554436DB
:102DD0003F576B7C929FA4ADB5B3B5C1CBCBC0AE12
:102DE000A297806C6B6B5C51544E414459707F8646
:102DF0008C9BAAB0B4B7B6C0D3CFB8A6968277746E
:102E0000685B5654514D44475F767F8A9AA0A5B0BF
:102E1000B5B3BBC8CCC1AC96877B71685C525A66AF
:102E20005D463E485B758D9AA2ABB7C1BAA8AAC0F1
:102E3000C6B9AFA186726B5C453F4D59554B4D5598
:102E400061758B969EACBDC9C2B3B5BDB2AAAF9F2A
:102E50007E6E6C5D4D4A4F535354585F6D79849824
:102E6000ADB1B0B6BBB8B3A79EA3A08B7B6D584ADB
:102E70004A4D4F5357616C7077818899B3BCB6BA8D
:102E8000C2BDAC9A8B85827B7569513F40433B3E06
:102E900051627185918F93A4ADAFBAC9C9BDB2A477
:102EA0008E766966635B514C422D263C5359698787
:102EB000989FACB2A8A5B6CCD3C8B9A78C756958F1
:102EC000464551514334313841516D8595AAB9B4C5
:102ED000ADB3BEC1BFBEBEAE927B67504147514B42
:102EE0003D3C424143556B7F97AFBAB7B8C0BFB3C3
:102EF000B1B8B3A99D836350464647373043504E1F
:102F00005A66637497A6A5B0BFC3C2BDB3A5999610
:102F10008E77635A514A4338333E49515E6A75850C
:102F20009399A0ACB8BEBBB3ABA094897867625D3F
:102F300051463D35333944535F6F8A9B9697A4AA17
:102F4000B0BBBAB5B6B09F8463565B564B4C483C99
:102F50004250514E566D8B9EA2A7AEAFAFB0ADAFF3
:102F6000B2A693816E605E5C53473E4252574E500C
:102F7000657D91A3A9A099A5B8B8ADAEAF9E8C8090
:102F80006A524E565A564D4C514B4A5C6B7692AF34
:102F9000B0A4A2A9ADABADB3AC9B92826657544F1F
:102FA000505552504E4E575C5E80A5A39BA7A8A5D6
:102FB000AEB1ABA9A6A39D8161554D464F57535263
:102FC000555A5B525B7B8F95A4B3B5B6B2ACA39454
:102FD00092A09B847D79614C4A4B474C5C69666743
:102FE0007680808797A3ABB4BEBDA8969795898459
:102FF000857862595D5A50515B6168727B82848723
:1030000096A09EAABDB4A09B968A858378675E67CA
:1030100071624F4D52607172738495A2AA9E94A3FF
:10302000ACA4A6A692858C896D505062675D5654FB
:103030005D6D6D656B7A8CA5AEA7ABB1A49DA294B6
:103040007D8494886D5C5B5C5240425868707774F4
:103050006E738192A4A8A9B7B9A9998E8380848739
:103060008373625747404E5E636C7A807C727487CC
:103070009AB1C7C6B2A29184827C7B8C9588704C31
:10308000374757586A858C8987827B7E99C2D0BC26
:10309000AA9B8A86867C7780897D5D42424B526CF2
:1030A0008A8E7F787D838A9AB1C1C7C2AD907E78BF
:1030B0007B89928B775E4F53544B556F8287898300
:1030C000787C9ABCC4BBB2A4938A88817D858E86A5
:1030D0006B4E41434C5E757C787C85827C8698AAD9
:1030E000BBC1B6A1929192897D79766F6A62565181
:1030F0005A666B6869727F8D9AA09E9FA3A39B946A
:103100009BA1988C806A5D686F686A7275756E6342
:1031100066778AA1B3AFA19487848A8889969683BB
:1031200071665A58677A7E797A7C777B868A95A60B
:10313000ABA59A84757E8F94908270635E5D5B5FB1
:103140006F8086857D70718599A6AEABA194857FD1
:103150007F7F82857D716250485266788182817D51
:10316000797E878E9EB3B7A9978D857A7C867C6A97
:103170006E6C50404F626C72797D7679909B929C18
:10318000B3B6ACA49686818B8E785E5C6055515D3B
:1031900060606F7D766C7893A3AAB3B6ADA4A19955
:1031A00089829096806A64574B596457546B7B733D
:1031B0007388989CA6AEA29498A3A2989AA29470A1
:1031C0005B56484C6E7A67697C745E627C93A5BAE4
:1031D000BEA58F979D8C8395A59A7C5E4B44536EBC
:1031E00078707580796969758AA9C3C0A79B9B8F20
:1031F00081838C909183654F525C5F5D65787F79A8
:10320000797F879BB0B1A0969EA8A1928D8B868175
:103210006E4F44556C797569676B6E7B8E99A8BF4C
:10322000C5AC918B939595A3A68D705D4A41516B6A
:10323000797B78766E60647F99AEC6C9AC918987D8
:103240008B969FA2998169513F4965747E8C8873E2
:10325000686C7B91A4B4BAAA9A94877B848E8B897C
:10326000816853515E6D73778289837E828996A7C8
:10327000AEA8A19C938A8E8F7F757772655C5B6523
:103280006F6E717A7C7B808999ABADA6A2978B8C8F
:1032900094958A7E7B7769605B5259758379757DD9
:1032A000807F8799A39D9BA4A1928D8B7E73777B52
:1032B000716D736A5961726C677B8D91949A988C69
:1032C0008188969698A397776C6956506A7F7C7729
:1032D00079715D5D788A8C9FBBB2938882727E9D86
:1032E000A0887C78644B4756636C7E836C5E6C78F8
:1032F0007E92AAAC9F9695897C8DA4968080745509
:103300004C5A6165737F735F5A5F657C9FB1A79666
:103310008B837B7C8B9797968B6E564E5262737B1A
:103320007E796B605E667A919EA19687847B6E7AC9
:10333000949891836955555B626B6F767E76655B79
:103340005E6F8B9C9B938D867C797F81828986774B
:103350006E685C57606D76766B666B6F737C82838C
:10336000898C857F81828285827A7A7E7567666C98
:103370006E72756D666E76706B737E888A817C7EE8
:103380007B7C837E7D8D8E7667696C6D6E717678C1
:1033900075746D61667B84818287847F7B777B8B8C
:1033A000958D7A696A7B7D6C6B7A796F6B656068E5
:1033B0007B8A8880868B796A778A9298927B696902
:1033C0006C69666E7D7D706964606E828788929597
:1033D000897E7D868D8F928F7E75796E5D657A7818
:1033E0006F716E646A7A81869096938D87878C8FD1
:1033F000959C9482756B6670766C6B797F7A746E2F
:103400006E7F98A29C989FA0948C91918C8E8A76C6
:103410006B716F64626C7578787A7A8298A49C9DDF
:10342000A8A49DA29E959D9F8D796F6865656A731E
:1034300077797A70697B939BA5B9BCA89999918C8F
:103440009DAA98807D765B48566C737D8D816A76E7
:10345000908F91AEC3BDAFA69C8F919F9B8A8987A9
:1034600069525861697A827B757B868C8C97B1C072
:10347000B9AB9C8F8E938F8B8F8D8479685A616FD7
:103480007B8892979B9A90898D9AA4A7AAACA18ACF
:103490007161647079848980787971677392AEBA4A
:1034A000BAB6A68C86949899A3A28B6E5D5B5B5D81
:1034B000738885808076748CA5AEB1B7B5A18C8EEB
:1034C000949094977C5D5A5E585D76837E7C7D7582
:1034D0007B9AB4B9B7B6AB947F84929293967C549E
:1034E00048494351758D908A7E70738EABB9BDC0CB
:1034F000B4978282827C81867259524A4152738586
:1035000087868584889AB4C0BEBDAF8E7B7C7B796C
:103510007C75604D443E3C5072878D8F8E8D94A299
:10352000B0BFCCCDB79681786F6A6A6155504B3F7A
:103530003A4A6476808B95A4BCCBC4BDC3BCA3932C
:1035400092897D78663E262A31303E5C73787D8490
:103550008189B3D8D9D5D9C7A28A80736C716B4CD5
:103560002E241F1F3451606C787D869DB7C8D0D142
:10357000CCBAA290827675735C3B2619132543530F
:103580005B6F7F7E829BB7C7D5DFD3B1978A7B6B9A
:103590006A644B352C1E17293F495872838C9BAFA8
:1035A000BDC7D0CBB8A49E9C907B685438241C180F
:1035B00022435C5C606B6E7B9BB7CCE0E3CDAE9A44
:1035C000938C8175644D3D2E1408265060636E7592
:1035D000778EB1C4D2E8E4C1A49B928783775C451F
:1035E0003821080F38595F626C717C98B1BDD3EFF8
:1035F000E4B599968D85877859473C1F0A204A5E25
:103600006570736F84A6B1B5D1E2CCAE9D89777831
:1036100079644B413A28233D5559677E81839BB39A
:10362000BDC9D4C7AD9E998A7B796D51423F333075
:1036300045575C65747B8197B5C8D1D4C3A3939378
:103640008D88897F6448321F1C3B667A7E87857F20
:103650008B9FB1D3F2E7BF9D8677717479725E4814
:103660002A0A0F416C7D8F9C95909CA3ACCFF4ED02
:10367000C5A0836D686861554E4836212544607841
:103680008F9694A2B3B8C1D7DCC4A897826C686B3C
:103690005B463C2F20263E576D85969799A9B6BE6E
:1036A000D2E4D4B4A18F7669695D48413E2C233CB5
:1036B0005C68779099939CB2C0C9DBDFBF9C918313
:1036C0006962675B4C483D2D335069778899A0ABA0
:1036D000BCC1C0CDD4C3AC9A83726E6A59463F3C1C
:1036E000333954666F869C9D9FB3C2C6D1D9C8AA90
:1036F0009C927C6B6A655448403A435A6B75819141
:103700009CA7B3BAC1D2D8BC9B948F7C716E5E4A21
:103710004846383957727C849299A1B6CBCCCCD626
:10372000CAA289877B70756D4E3A3425274F7988F8
:103730008E999793A8C2CAD2E4DDB2908473646C68
:10374000766042393124346487929DA098A1BBC928
:10375000D0DEDCBFA0866D626C6F614F3D2D2B3CCF
:1037600058758FA3A69CA0B5C1C6DAE2C4A08F7914
:103770005F6171634639352E37516D879EA59D9DDA
:10378000B0C5CFD9DECAAA947B5E5C6E6A513E3466
:103790002E364D657E9AA9A29DAABED0DCDAC5ADB3
:1037A000977F685C5F655F4A32262E435A7594A105
:1037B000A0A6B0B2BDD2D2C0B5A888685F5F574A94
:1037C00043392D36515D617E9E9D9AAEBFC4D4D9DA
:1037D000BA9B9894786261605242382B28456B7787
:1037E0007B919C95A2BBC1C4D3CBA78D877C6A6417
:1037F000685A413E3E2E346281828B989496ACBFCB
:10380000C0C1C5B893766F685F64634C3C3D3A3B7A
:1038100053748C9B9F9FA6B0B6BABCBCB5A0866FF4
:103820005D585C5441393E4249596E8395A0A1A030
:10383000AABEC5C0BDB59E86725E4F535C4E393878
:103840003F42506777899FABACAFB8C2C2B8B0A354
:1038500088756E5E50504B3B3841474F637C8D9767
:10386000A5B1AFB0BFC4B5AAA5947D7268574D4944
:10387000403B46555D6878808694A2ABB5C1BEAE2C
:103880009F9687766F6C66635A4336435865727F9E
:103890008997A2A3A3ACB7BAB5A8937D716C5F5406
:1038A00058553E3649575F72848A96A9A8A0B2CA75
:1038B000C2ACA5987E717060525A5D433143595F26
:1038C0006D83878CA5AC9DA8C6C5AEA39A83737380
:1038D00069514F6052313A5A61637A8A8C99ACAD22
:1038E000A9B8C4B4998C8377757568574F4A403826
:1038F00046667C7F8895918B99ABADAFBAB2917CCF
:103900007D725E6171655051575361838F848AA0C7
:103910009B8D99AAAAACAE947065665D5C686E6773
:103920005F59545C768F9BA6AEA79D9E9995A5B3D3
:103930009F816E58474B585C646F6B5D5D6C7A8BF2
:10394000AABEB4AAAEA18C94A59B8C8571524B568D
:10395000575869746C6D78757A9EBABAB5B2A395EA
:10396000979B91838079635960585063726A6E8027
:10397000858A9FAEACA5A5A39B979B98897E705E18
:10398000575B5F6265676C73767E8F9DA7AAA49B69
:103990009A9A9691908D826F5E575A6773706B7783
:1039A000827E7A808DA0AFA996919893847C7A7557
:1039B0007371655C67736F6D77808891928F98A83B
:1039C000A49392998B7A7974666B766A5D6A736751
:1039D000697F898791988F8D99988E939B8B736E51
:1039E0006C676D77726C7372686D808E9AA19A8E17
:1039F0008B8C88868F948470655A56626E6E71794E
:103A0000756D6F7C8F9EA49E918D8D89898D847636
:103A10007065514E5E6B70716B646A7C8C939DA770
:103A2000A08F8A8984899087796F5D4A49576C791C
:103A30007569666F7A85919FA8A498897F84909014
:103A4000857B6D5D545155697B7B737172747D8D7F
:103A50009BA2A29B897C81837A7C81736568655D6A
:103A60006977706F8A998B838D91919A97827D8FF8
:103A70008D70626A665F6B726B717B6F6D8B9D94EC
:103A80009AA69E93968E7F8A9E8C67606659576E23
:103A900070626E7865668998919FB0A18B8A8B88D9
:103AA000929B886F6D6B59576C757980735F6E8EC2
:103AB000928E9EA6938688817F949C7F6B736B52B7
:103AC0005A7884878A7B69758C8E90A7B39E847A96
:103AD00075798C8F776C776D545C79838387827A64
:103AE00084919192A4B0A082787F85878376707745
:103AF000725E607C8B86827F7F8C979399ADAB9052
:103B00007E7C80898F8374787F6C57678485818BF6
:103B1000887F8D978A8CA6A689818F9085837D70FA
:103B2000798C7C657A95887D898883949D8F8E9A1F
:103B3000917A798A8F87837E75798277708597905D
:103B40008787888E95918A91968B7F81898E8C7FCD
:103B500075767E85888685898C8884878F929191F9
:103B60008D7E78858B8B908E7F7A80848A979A91D0
:103B7000898885808897938A8F84686A83898993E6
:103B80008E7E7B808693A0A3998C8A8A807E909774
:103B90008B8074676876848B8985847C798CA09D02
:103BA000989B958986898A8C8F8A766465717780DF
:103BB0008B8578767A808B979D99928F897872839E
:103BC0008F867C77706F777C7E868A8079879796E0
:103BD0009293897C7E7D6F748A85695E6265738647
:103BE00087858D8B7B7C92A2A6A79C8373746F675D
:103BF000748375605B5654667A858F9185808C9747
:103C00009DA3A397877B72686A76725E585D595947
:103C10006D7F83837F7D87979E9E9F988A7A6C6550
:103C20006C7875675F5B53546273828D8E898A935B
:103C300097928E929486766D696663574A4E5E6659
:103C4000656D7D837D8392979BA8A8918280716129
:103C500068756B574E4C495163717C8C91807B9198
:103C6000A09D9EA1917E756A5D627068524D565A04
:103C70005D6C7E868C928F8F9DA8A2988F7D6C69DB
:103C8000685D5A5E54484E56596C87908D919A9E45
:103C9000A6B0AD9F96896C595E65625D4B38405306
:103CA00057607C969D9A9A9EA4B0B9B0A39A8467F7
:103CB0005B5D5D5C4F3C3D4D51566C83919DA4A076
:103CC000A2B4BEB6AFA6856A6C6A5B5C5C4337493A
:103CD0004E495F84969BA4A59EA6BAB7A7A69D7ED3
:103CE0006B6A6156534A424D5B5A5D748C959AA338
:103CF000A5A6B3B9AA9D9988716C6D60514D4E4EC1
:103D00005360676E859B9A97A6B1AEAEAE9F9089C1
:103D10007F706C6A58464A565C67767A83989B90A7
:103D2000A0B6B2ACB1A187807865667363494E5C7A
:103D30005F687E888C9BA1979EBABFACA7A188764E
:103D400071625D6F6C4D43525A678393919CA9A237
:103D50009FB1BCB6B3AC8E6F615B5E6861504E5272
:103D6000525E75899DB1B19FA1B8BDB1B0AC937AD7
:103D70006B57516264545056555C708397AFB9AE1F
:103D8000AABABFADA8AA9783786458605946485329
:103D900053617B8993A7B4ABA4B4C1B8B4B59D7E7D
:103DA000756854525B524950585C6B849498A2AF2A
:103DB000B3B6BEC0B6A999836C636C6B59525346B7
:103DC000435A6F7B96AEA6989FA49FA7B9B39B8ECC
:103DD0007D5D525E5A5364716662727F8599AEACA6
:103DE000A6B0B1A09A9986716B6154575D56545F25
:103DF0006669778B9BA8B4B9B5B1ADA4978E8D8554
:103E0000705D5145424B4D4F62757C818C9CB1BCBD
:103E1000BBBBBAB1A1948B847968584E49464349DB
:103E20005E6E747E8C95A2B3B6B2B7B59E90959037
:103E30007B6E5F4847524A4968817B75808D9AAE98
:103E4000BBB9B6B49C7F7A827A716B594C4D4845A8
:103E5000607F84848F9597A4B1B5B9B69E8785821B
:103E600070645E5551524B4A63797B808F99A0AD47
:103E7000BABCB5AB9C8D888A806E625B514747584F
:103E80006F79797F868B98ABB6BBBBAB928C918BED
:103E90007F797261524A48577484807D83898B97F9
:103EA000AFC2BFAB9489898579747875644E4553E8
:103EB0006C7D818188909095A9B5B0AAA0908D8DD8
:103EC0007A6D75725E56595B677776728397908DBF
:103ED000A5B1A19B9F959096856F75796258666A8A
:103EE0006A797D6B7291958EA3AC97939D9088951E
:103EF0008E756F70686872737076797578868F9634
:103F0000A19F908C93938F908B7C73717070757A56
:103F100079726C6F7A828B99998B8689868B98934C
:103F200085827A6C74827C7A8279676F7D7E8B9AC7
:103F3000907F817E798B9B8C7F80766C79817A8073
:103F40008A79697985828E98857A817B768C978546
:103F50007C796A6B7E7D73828B71667D89838C8FA1
:103F60007C7988878190957F706E6B7383847B7A70
:103F700073636475828C9082767B7B7C929F8D824A
:103F800084746F8B9685838263526B808185816A8E
:103F90005E67727C909E9682716C7B95A1A19F8AD0
:103FA0006963727784958768605F5C6F8A8C7E78BE
:103FB00074707B8F9A9E9B836668818A8C908469DB
:103FC0005A596276898B7F7168687282949F978054
:103FD00070778285888A807064606C818579706969
:103FE00068727B82929C886E6D7B868D908A7D72D2
:103FF00069646C808B837771696775848F948A7A22
:104000007B7E767682847E7B766D7079756D758227
:104010007E7980827D807E798592867676767176CD
:10402000807F7C7C75696B787E828B887B757477EA
:10403000838A847E776F70787D8186827772777DC0
:10404000838E9184787877747D857E7570686372CD
:104050008381787B7D777880848E9A95857F7F7D3C
:104060007F817D79766E686B706E6B717A7B7B81F8
:1040700085888B898A8F8D898D8A7D7C7E75737EFC
:104080007965647174747E848082847F818D94925A
:10409000908C86837F7B838981767674737B807C2A
:1040A0007F878278818E8E929488858F877A8A998D
:1040B000887B817B717A817E83897F73767D848A18
:1040C000898B918B7B7D8E94909290868483777779
:1040D0008D927D727676797D7B7E8A887B7C888DD9
:1040E0008B8E969487838583899284737B81726C8F
:1040F0007B847F7C7C7C838B8687969D918A8D8C4C
:104100008E8F81788285787478757375757B8587D5
:10411000878F94908F9393989B8F8689867B7D80E1
:10412000787477706D7A807C838D85818F938C9283
:10413000968D939B8A7F89806E7982777A84767058
:10414000858671799190888C8884908F81848B7C0E
:1041500075868A838681737B887F7C8C91887F7843
:104160007C898C868A88746D7A8285929181818A15
:104170007B71899D92837B767B807A7C877D6C7155
:104180007B7C8791867F8C8C808A9F99847B7B81C6
:10419000857D7C837963616E7A8B93857D86857E50
:1041A0008FA7A99B85737A8C857B8D8F69556570E8
:1041B0007A908F7A7B867C7C99ADA393857E858C63
:1041C00085879282636272747D8A7F717A7E7B8E2C
:1041D000A39A8A8580808B8E8E9387685F72808693
:1041E0008F8A746A707889A3A8917C757174869996
:1041F0009B8C71595B768C9195937B66708798A8A0
:10420000A98E75716D6C849B8F73646063738691E6
:104210009488736E829BA7A2907F78706B7C949237
:10422000785C525F737D87958C70697E92A1A898A7
:10423000817C776D7A95957B6152566B7B869491E4
:10424000725E6F8B9EAEAA8C78736A6E8D9F8D7135
:104250005C4E556C839499846763778CA0AEA78F6E
:104260007A6D6E7D8D91866C5859606A85927D6EEF
:10427000787A7A8FA39E948970688391837E7E6812
:1042800059646E758787737584817E8D94887D7B74
:104290007B848B7D6B6869666E7C878C7E696E81A2
:1042A000878F9A93847C726F808B82756B615E635B
:1042B000748C937F70747B8194A5A295836C6C86BB
:1042C0008E7F807E63535C657A94876A71827D7F7E
:1042D000939E9C917970849086807C6F66676773EB
:1042E00087806769777B828E8F9190796F8B9A8AAE
:1042F00085866E637373728A8C6B6170727C959520
:1043000088877A68778D8D8E8D7669747576898EBB
:104310007A74766E778E8A7B7F7C6E758484878CC8
:104320007A6974848A8D897E7A79747C8B877770B8
:104330006D6A727F82858675657388919898887A90
:104340007778849A9C856F666467717F8A88715AD2
:104350005E798E9498998B77707D929E937866673C
:104360006967758B8A7563617289939397917B6E88
:10437000778B9D9679686965627183867C6C6070C5
:1043800090978F9899837B8D9696947E62616865ED
:104390006D7D7E6F605A6B8A9D9E9B92807C8B9E0A
:1043A000A8A1896D5C596477827F74645C687D8E96
:1043B0009EA697827C8596A49D86766B5E667F849A
:1043C0007A76695B6C87919DA68E79828B92A8A97B
:1043D0008974675560868C79766F5C698A96A1AE20
:1043E00099797E8F97A4A4876C5E536183887671D8
:1043F0006B5D66849CACB09B8385919CAAA68D77EF
:10440000614E61837F6E6D6256698392A9B197890F
:1044100092959BACA78D7B655268877C6967594FE5
:104420006A8693A7AC908393979BAEAB8F7C6A5AB6
:104430006B837A6E706258708992A1A18B8B9B9866
:1044400096A29B85786A657D897267695C608195B3
:104450009AA79B7D87A6A6A1AA9A7A6F6A64798D8E
:10446000795E59585F7E9CA6A598848499AAB0ADC0
:104470009A816D63687B847965555365819AA7A09D
:104480008E868D9BAFBCAE937D6A5F6E827D6F66BC
:104490005248658C9A9F9F8C7F8DA4B3BDB2906F5C
:1044A0006061708385745E4B445C85A1A6A0918396
:1044B000889CB2BEB3947767636978827A624C490C
:1044C0005E83A0A29A968D8899B2BAB19B7E6D6EDA
:1044D00073767E7E664C4C6584999C938D8C8F9A06
:1044E000A8B4B49B786D7472737F7E6A59546081EE
:1044F0009B9D958F8A8C97A0A8AC99796D726D6DF4
:1045000079786B635D607D9B9E989791929FA29E48
:10451000A29D7E66686E6B686765625F617592A139
:104520009E918992A09F9BA3A28B726769716F6411
:10453000656B645E6C8392958C848B9998939AA03A
:104540008F73646875756E727265616D7A8B9A92FD
:10455000868D8F828494979085706672726572835F
:10456000746976797C8F9080878F7E7986827C8053
:10457000746B787869727F767586898288897E8186
:104580008A87837E7372766C6A7B7B6F74736877BD
:104590008F8F8E9488797C7D7F8B836C6C6F5A585B
:1045A000757F7A7D786C798C8B8F9A938178777E02
:1045B00084766A727161616E777D756470898985B0
:1045C000908E827F756F848E7870796D626D757D47
:1045D0008A7F6A7A8F8582908C7E796F6D838875E9
:1045E00072766A67727A899581768B9182889083D8
:1045F0007C776A73827265747467727F8090987E2C
:104600007A9A9C878D927F736B606E7F70636C6704
:104610005E6C7B849497898EA19E8F92998F7C701B
:104620006E6F69615F605E616B768087878B9CA728
:10463000A0969695887A7D81776B6663666D6769CB
:10464000838C7878909FA097898A91837783897AE1
:104650006F67606E7F7B7F9289727E969A9995884C
:1046600085806C718A836B696866798685959C8183
:104670007592A7A8A190827B6559768D78635F5A61
:1046800061737C91B0A57F7F98A7ADA6928A7E5E6C
:104690005D7E846E625853626E7597AC907C8F9D80
:1046A000A4B1A997937A5A6B8778625F5859666A62
:1046B0007A9C9A7F879D9FA4AC9F8F856D647C8830
:1046C00074646365686A728E9A847B929C9AA098DF
:1046D000878172607590816A666368788194AFA003
:1046E000797E979899A19580705852718573666B01
:1046F0006C717F8EA5B5A28C99A59F9D99867461DA
:104700004D566F6B585A646B7A8996ABB0A09EB0C9
:10471000B2A8A497806E5E566470614F4F55607A60
:10472000909BA2A19AA1B0B2AFAA9A8371645F656F
:10473000675E58575867808F959899A0ADAEA9A726
:10474000997F6F6D6C6E6C615A5A58607E999E9A13
:10475000999B9FA4A3A19E9077666363615F5C5C55
:104760005D617491A09A969CA4AAAAA39E957E6569
:104770006268645A585A5B5F6A819AA39995A0AAA5
:10478000ADACA397896F5A5F675D585C5A5B6976D9
:10479000889EA29AA2ABA4A4A99F8F7F695B606048
:1047A0005A5F635B606E778AA0A09DAAA6979EA2BF
:1047B000928A82685B5D5353666966767F7C8C9DC6
:1047C0009BA3ADA094968A7B7C715B56544F5E6E22
:1047D0006C788E8C889BA8AAB2AD99928B766F75F7
:1047E00066524E4B4C5D6A738DA09693A5B4B9B9D1
:1047F000B2A899806B68675B4F4D5155555F7891B2
:104800009D9FA6B9C1B3ABB0A994827469615042AF
:104810004F605A576C8592989DB0C6BFA6A4ADA0B4
:104820008A7D72695B44405A675D6479838F9DA677
:10483000BBCBB69EA8AD98847970634C3F4F626540
:10484000686F788B999CB0C8BCA6A6A59991836B1C
:10485000615A47475E696B73767E94A1AAC2C4A968
:10486000A2A7988F8E755E5A4C435A69666F737013
:1048700086A2A9BBCBB3999C998F958E6D5A524253
:1048800046636F707878798FA7AFB9BCA693919083
:104890008E8E7C60514E4D586F7D7B777C8898ABB7
:1048A000B5B2A99D8F8788897C645454575967791C
:1048B000786F77899AADB7B0A39C9085888E816711
:1048C000534C4D52627981756C778FA8B6B3A99E0F
:1048D0008F807E858470584D4A4A597383807672E2
:1048E00080A0B8B7AEA79378728083755F4A4347BC
:1048F0004C5D7B89807B7E8EAEBFB6AFA689747B14
:10490000827B6C523C3B4147618082787A7E8DAEDF
:10491000C0B6B0A482738382736C5C4542484D6616
:104920007F7D72737C8EA0A6ABA9917A797A7C7D0B
:104930006C585B5C505B747A7A7A76809899949C18
:10494000937B7779747A775A51605F5F747E7A7C53
:104950007878909B8F959A816F716D727D675160A9
:10496000685C687A77797F7D889A9388897F737588
:1049700076777E6E51526469718281767478808E0A
:104980009A978B7D736E737D7B6D60585765757BD1
:104990007F7B6C6E828D939D957C70707886897814
:1049A000675F586077898775605F74858D989A8393
:1049B0006862718A998E7767605E6984998D6C5E92
:1049C0006A7986959788746468829692826E5E6230
:1049D000738698977A6468717F959E8E78656478FF
:1049E0008D918C7E6963708599987E7177787F97B9
:1049F000A1927B6965798F928D8472656B849E9A92
:104A000081797D798099A3978571708896908D883A
:104A100075676F869E9B7C6C757C8499A79F8A7650
:104A2000748BA0A09791836E6D8AA29A816E697033
:104A30008093A29F8570778FA3ABA3948878708CA6
:104A4000AEA280716A6C82979D9E896B708EA1ACBC
:104A5000AB9482786F88AFA784776E688099A0A4A2
:104A6000916E7091A4AFAC9382786E83ABA7897975
:104A7000665E7E9FA5A59577768D9EB5BDA084794F
:104A80007183A6A1867C68567298A19F90767993CF
:104A9000A3B5C0AA8B7B788CA49E8778645B708C4E
:104AA0009B9B87778392A0BAC3A98C7B7A97AC989B
:104AB00080765D4F6988999D836A7A929BB4C6AF70
:104AC000907C768FAB9E86795F4E6482939A8770D6
:104AD0007A8B93A8B7A9978779889987767765564F
:104AE0006B8080807870849CA0AAB49E85838B990B
:104AF000A08A6F675F56657D867F6D6277969FA5FA
:104B0000AA9C87818A9CA58E6E626062717D7D768B
:104B1000665E7598A5A39D89757C92A09F8C6A514D
:104B2000526579878675625F7495ABACA0886F6DAE
:104B3000879B9886694B445771828575616077952C
:104B4000A9ADA0856E718897927F644A41526F82A9
:104B5000806F5E607994A2A9A488696A84958C7339
:104B60005B4B414A687F7A695A5D7B9DA6A7A78BFC
:104B70006A6E88928D7858494747597879605662AD
:104B80007A95A09E9A876F748E988C7457494A4F75
:104B900060767662555F7A91989C9A857075868C5E
:104BA0008874584A4C515D6F72665F6B808E939A21
:104BB0009A877A838C85766657504F525D67655E1B
:104BC0005F6F848D8D9495857D8B928673625C5F1B
:104BD0006060676B645C5F748C928B8D8979778978
:104BE0009186715D555B62666D6F665C637E989CB5
:104BF000958C817D848A8E8A735B565A5E6A726D4B
:104C000064616A819495938F827E8A908A816E5CBA
:104C10005F696B6E71686169778A9A9A8D827E7F0F
:104C20008992918067575A67747B7A70666D849613
:104C30009CA199857F888C8E8B765E585B66757695
:104C40006E6C6A7290A8A8A3998582919A9B9379B9
:104C50005F585C6A7F81726D6C728EA7A8A4988081
:104C60007F979E98927C605B66768787766C717F73
:104C700095A9B3B09C838398A29C8D7C6F65637368
:104C8000837E716D778B9CA1A6A79A8C92A0A7A119
:104C900088706D747881887F6C647695A6A7A79ECE
:104CA0008A85939FA39E88716A737F898B847571AF
:104CB000839CA6A9A89B8E8C95A09B8779736E7503
:104CC00084857E7A707597AEAAA8A3928E99A2A9C0
:104CD000A0816D6D6F7B8B897E756B7494A7A8A87E
:104CE0009C8A8A97A3A9987A6F73788188867E6F49
:104CF00068809FA5A29B8C8C9597A4AF94706B73D2
:104D00007C8A8C80776A657D99A29E90848A95952D
:104D10009EA48C71717F8A8F8779737276889DA229
:104D2000927C77818C979C917C6863778F938F8737
:104D30007773839099A69A7D7B837E828D816E6640
:104D40006571838178797C829096999A8978818F30
:104D5000908C806E63616879878373666B819296AD
:104D6000988E7A73788390907A68605E6A7D848189
:104D70007A6D6F84919292897A73757F8B86705D5C
:104D800059606A758081756C74838E948E84817C81
:104D90007880867B6A5B57616B6C73786F6B798602
:104DA00090958B8085888180817664595B656C6B7A
:104DB000666265707F8B929083726E80918F84762D
:104DC0005F515A64707D735D5E6C7788948A7B70E6
:104DD00069778F938675635A5E6A7C8879625F6AA9
:104DE00076858C86765F5B758B8F88765D57617371
:104DF0008F998066646A7587918D7759556F818226
:104E0000847C665A6177949A7F6E767B7C8A978ED3
:104E100070565A76857F7A7462545E7E9B9A7E7154
:104E20007D848595A69774616B7E86817C766354BC
:104E30006488998A777981818A9DA38E706574854B
:104E4000847F827965617894978279878C8591A334
:104E50009B817073848B7F7A80796C71899B8F7949
:104E60007C8F8F8D9D9F8B79737E8F8D80818276D5
:104E7000758596998B7E8A9891929C94817E869076
:104E800095897F82827D87999D8F7C7C8D96959A6E
:104E90009887797E8F9C998B8685808497A7A28C32
:104EA0007B818E939B9D8F817E818B958D8688855E
:104EB0008696A29D93888690979A9E967F737B8A0A
:104EC000948E848585828FA3A69D918990999A9BC3
:104ED0009987797B828D92857C807D8099A89B8E35
:104EE0008A8A939B9D9D8F7470838E929080767832
:104EF0007785A4AA9486858388919795826C6F7F25
:104F0000878B887E7B7B7A8DA7A18D8887807F8623
:104F10008C88756A7378757A7F7F828182929B9084
:104F20008A8F8F8B858186806E717D766F717076AA
:104F30007F787A8C8A7F8892918E858081766E7D4B
:104F400082746E6D6D787A768288797A888A8A869C
:104F500079787A6D6F807E716C6C76796A6F827BFE
:104F6000717D817B7B7270807E7177766C707377D8
:104F700089816669756C74888374685B66787574FA
:104F80007A6B5E657184917C676E6D6A7D8C8472CC
:104F90005B54697774777462565F768E8B7466643F
:104FA000656F7B817F69515B727879796E62616C24
:104FB000828D806B5E5C68757A7A6C565262737F04
:104FC0007D6E6767677A928C796D6265798178709A
:104FD0006152586A7A8278625C6774848F867363E0
:104FE0005E697D82746764656A7885887C6A697D9C
:104FF00086828178645E656B76786257656F7886A5
:10500000898279717A91958A806E5E636C6E716B1C
:105010005C5C67707F8986828287979F93877B6CB1
:105020006871746E665D575B687A898A888993A017
:10503000A49D978E7D75797B73625357656B7281E2
:105040008A87848EA8BAAF9D999284818581756084
:1050500050596D72747F8784879BB3BBAD9C9797C3
:10506000918E8B7E6B5E5F7182807D83858799B028
:10507000BBB49F9194948D8A897B685E6E878B8187
:105080008691949CABB7BCAE928D9C9B8C827B70BE
:1050900065657B918B838F9AA0AFBCBEB7A4939BB1
:1050A000A79D88786E6866718A938480929FAABD56
:1050B000C9C3B3A19BA5A59181796E686D7A888CCF
:1050C000838AA4AFAEBBC3B9B2AAA0A19E857477F0
:1050D000767377787D868793B0BCB4B1ADABB3B14E
:1050E000A29B90786C727C827C72788894A6B9BE00
:1050F000B4A39AA7B4AC9E8E7865647487887871DF
:10510000788499AFBBBDAD9496A8A99F96846E6232
:10511000677B857D77777788A0A7ACAC978C9B9FC2
:105120009998876D666A7582817C7F797892A7A845
:10513000A5998C9191888E8F7560626E7472768657
:10514000867C899DA3A39C929696827A8178645EE0
:10515000666D686476847F84959A98969293907F22
:10516000757973656267665C586A7E7F818C8D860F
:1051700082869497806D6E695B5B6A6F61525C702A
:10518000777E8E93857877858D82736D62524F5FBF
:105190006C6354596B7072818D83717485897E71D3
:1051A0006861564F5D756D545664656D7E8782717A
:1051B000646F7C756D6F63514E5B6B6A5C5D676895
:1051C0006B7D8A8370667178706C6F634D424C6240
:1051D000665B606A6361768D8F7B6E7777676775D4
:1051E0006F5A4A4A5B5F515A76725F688185766B67
:1051F0007480756165706350556669625E65706D37
:105200006A7D8D7E6E7270696C6C6D6855506060E1
:105210005C6C716C7073798A85747878676A746E67
:10522000695E53636C606B7F746A737A878E7F7676
:10523000756764747A756C5F5C656974888674716F
:105240007C858D928E80706B7480837A6D67666CBE
:105250007E8C8C847B7A8691999F90746E7A8287FB
:10526000887D726C6D7F979D90858289949FA498AC
:105270007F6F75848E8F8A7B6D718599A39E8D86D5
:105280008A92A1ABA08C7E7A869594918772708762
:1052900099A1A392848B939CAAA7948681859499C3
:1052A000938B8181919DA1A39A8A8A99A9ACA18FA0
:1052B000837E8595A09F907C7C8D9BA7ACA3978FC8
:1052C00091A0ABA298928A8D939395938484949C99
:1052D000A0A39A939498A5AFA398968D8D999B932C
:1052E0008C858792979B9F9790969FA3A5A1989254
:1052F00092979A9A9689828D99979698938B8C9982
:10530000A59F928F91959DA29E958A868F9B9F9C2B
:105310009186828796A196888786848F99988E81B8
:1053200084979C999B9489858896A4957C7C817FA1
:1053300081888C85726F8696928C8786868794A0EA
:105340009686808088928C847C6E707F828586753C
:105350006C7681909A887A8080869A9E92816C6F12
:1053600086888181776B6A6F82907B6E7B79778983
:105370008E867D6C6D878C80807A6E6F727C8B7C64
:10538000656E7B797E817B7467657A867D736A66DC
:105390006C7078847E6B68737D8581766E656371D1
:1053A0007B7972655F696F727A776C6C70747F80DD
:1053B00076726C666F766F6A635F696F67676C6839
:1053C00068737D7E72666970747B7B6D625C5D6EF6
:1053D0007E76686463646D7B8173615E646C7778EC
:1053E0006D635B5C6E7D7B746D696D767F867B62C1
:1053F0005B63676E746B60585562777C7473726F11
:1054000075818883766E6C6D707069615F5D616CAB
:10541000716F7176767E87867E7977797A75716A13
:105420006160676E75766D6C75777B86877E797344
:10543000747D7C726B676A72747577716D76818822
:105440008C84797776767B7E796B6067777D7D7DDE
:105450007B7B7E83949F8F7E7D7D7D7F7F7E73614E
:105460006174808384807F838795A5A192878180E2
:10547000868C8C83726C7077808A8D89827E899904
:105480009E9A968D848188949283797A7B818E9777
:10549000968C878D949AA09F93827B828C8D878235
:1054A0007C7A83939F9E96919399A0A2A095827DEA
:1054B0008E968F8B8274768494A4A38E838B96A40D
:1054C000ADA99B85798CA4A59A8873708196A9AAA9
:1054D000937E7B879EADAA9B84727F9DABA9987CAF
:1054E00073859AA8AEA086798297A6A49480767DCB
:1054F00092A3A59584828E9CA3A3998B8286959E68
:105500009483797A87999F978C848A9DAAAAA08D83
:105510007D85969F9D8D776B708499998879758428
:10552000A1AFAA9D8877829CABA3876F6972879E83
:105530009B84736F7E9DACA18D776F7E939D9980C8
:105540006665758C9D96807474849EAA9C83707128
:1055500083909086705B5A728F9481716D7489A06C
:10556000A7977B6B758995917D685A59708D8A7163
:105570006567738999998A70687C8C8F8875615B7F
:10558000637A8D826B656A75868F8A7864667982A4
:105590007E75655B606E81856E606A768494917CB1
:1055A000665C6D87877665534C576E827C5E54646B
:1055B0007485948E76625D728D897262554C5D7CC5
:1055C000877256505E6E7C88856C555C78867C6EE2
:1055D000665C596C87876B565B6B777D7C725C4C25
:1055E0005A79816E5F5B5A60768B856A5E69777FD8
:1055F000837E6E5B55677C756158565764798376F8
:10560000605D708388867D685760798377655854BC
:105610005B6C8185705F636E78858779665B667E7B
:1056200081726A645B6179888372686D767C858833
:1056300078625B67767875736A60687D8988838035
:105640007D77778285786B686C6C686D79746B7622
:105650008281848A8C89838084837A74726C666781
:10566000727D77707A83808897978C868689888404
:1056700080796D677183887F7A7C7C8294A3A19105
:1056800084868D8E9090816D68788F938A87827AD8
:1056900085A0ADA6968A898B9097937F717483902D
:1056A0008F8889837D92AEAE9A8D9094959CA79BAE
:1056B0007E6F7C929A928E8D807B96B2AE97898A0D
:1056C0008E939EA99C817A8A9B9F9E9D978B8BA08F
:1056D000B1A58E8A928D8895A0917E83969F99958B
:1056E0009BA3A09FACB19B868E9E9C928F8A7F7A53
:1056F0008AA3AA9C8D8F99A3ADB6AE948491A0A2E3
:10570000A096847A8398A8A7988B8890A3B3B19E1B
:105710008986929CA1A397837D8EA4ABA0968F8B44
:1057200093A7AFA08B80858F959B9A8B7E8699A33C
:10573000A299918E939FAAA58F7C7B858E93958C41
:105740007A748599A29D948E8D939DA196867E7D77
:10575000808688817876809197908B8B8990A0A3A2
:10576000917F76798386807C7166718A979384793C
:105770007E8994A19D816A6C7A86867B6F635F7651
:1057800094998B7A6F768A9A9E8C6C5D6A7C8686F9
:10579000786358648398907B6D6B788F9D906D547F
:1057A0005A7182897E64525A79969A846B5B5E79CB
:1057B0009897734D415470868B775447618CA49CA5
:1057C0008063535E8199865938374F6C7E7C604187
:1057D000467099A695745C5A70909773432D39540E
:1057E0006D7868453450809F9E85695962829D8E90
:1057F0005D352F405A6E6E55383B658F9D917963AC
:105800005E749397794C3035516A706045394D73A9
:10581000939B876B5D658397845F4437405B6F6CB8
:10582000553D466986928E796867758A8D6F4D3EC3
:105830003F4F656C614F495E7E90938B786E7684A6
:1058400088795D4A464D5B645F544F5D7B8F8E8ADD
:1058500082777E90907B64544E55626A65564F5CA9
:105860007790988E827D81909A8B6D5850515C69AB
:10587000695C525973929F99908B8C98A49C7F631A
:105880005657616B6B5D4F546D8EA4A394898A9AB1
:10589000AFB29A785E5867797E725D526183A3B029
:1058A000A6918690A6B6AE92715A5C748683746493
:1058B000627695B0B9A99492A0ACADA28D725E66E5
:1058C0007C847C74747A8DA6B5B6AA9DA0ACADA379
:1058D00096836D68747F7E7C80848C9EB0B6B3AFF7
:1058E000AFB4B1A397908073767E7D787C87919AD0
:1058F000A5B3BAB8B9C0BFAB99948C8180807A74D3
:10590000768193A4ABB0B6B7B9BFC4B9A3958D8364
:105910007E7E7A73747D8C9AA5ABAFB3BBC3C7C0D0
:10592000AC98908B858481746E758193A4A7A8AE82
:10593000B5BCC3BDAC9E928987887F736F76818F1B
:10594000A0A9A5A6B1BCC1BEAFA097887D8280707A
:105950006A737E87909CA3A3A7B5C0BEAC99908CB8
:1059600083808074656675838C949A9B9EACBBBB68
:10597000AD9A8E88807B7C705A586877828D93931D
:1059800096A6B9C0B5A08C827C7A7E755A4E5B6BA8
:1059900075838D8B868EA5B7B29F918677727C7F3B
:1059A000695355636E79858B86828EA3A89A8A7F08
:1059B00073686B736B57515E6A727F8E8E858C9D98
:1059C000A0968B7F7161585C5E514A555D5D697D23
:1059D00088898E999B8E84847F6C5D58554E4C557A
:1059E00060605E687880889496887B7B7A70645B60
:1059F0005147465563635D626F7C899BA4927974BD
:105A00007A74675D513F38465C6561606872829A5E
:105A1000A89D827275776E655B47353B5467665FFC
:105A2000626C788FA8A88F787273757367503B3556
:105A3000435B666463656A80A0A99A87776F707418
:105A40007263483942535E676C6B6A7793A2988C95
:105A500084776D727366514446535C616A716F75E9
:105A60008B9E998B8783767074705F5151575A5C07
:105A7000646C6E748597978B88887E767B7B6A587A
:105A80005862625E6877787583979889838A87778A
:105A90006F726D5D5A6B756E707D85868D989D9366
:105AA000898D8D7D72726B5D5E6D77726B76878B83
:105AB00093A8B1A28E8C9590807B78675A6272769B
:105AC0007072818E96A3AFAB9C93969891887E6EF0
:105AD0006268747978787B8390A2AEACA197949435
